:020000040800F2
:10000000204C00204D020008471400083F1400084F
:100010004314000823130008411A000800000000E0
:10002000000000000000000000000000A90100081E
:100030002713000800000000ED0100080917000860
:1000400067020008670200086702000867020008EC
:1000500067020008670200086702000867020008DC
:1000600067020008670200086702000867020008CC
:1000700067020008670200086702000867020008BC
:1000800067020008670200086702000867020008AC
:10009000670200086702000867020008670200089C
:1000A000670200086702000867020008670200088C
:1000B0006702000867020008891700086702000845
:1000C000670200086702000867020008670200086C
:1000D00067020008DD1800086702000867020008D0
:1000E00067020008670200086702000800F002F8D3
:1000F00000F04AF80AA090E8000C82448344AAF178
:100100000107DA4501D100F03FF8AFF2090EBAE875
:100110000F0013F0010F18BFFB1A43F0010318473B
:10012000B42A0000D42A0000103A24BF78C878C14D
:10013000FAD8520724BF30C830C144BF04680C60ED
:10014000704700000023002400250026103A28BF35
:1001500078C1FBD8520728BF30C148BF0B60704739
:10016000662902F0EB84642900F0D88000207047F3
:100170001FB500F099FB04000020002102F03AFABC
:10018000E0601FBD10B510BD00F08EFC1146FFF7FA
:10019000EFFF01F0A9FC00F0ACFC03B4FFF7F2FFA5
:1001A00003BC00F0EFFC0000204B19680868B0E8C1
:1001B000F00F80F30988BFF36F8F4FF0000080F3DA
:1001C00011884EF00D0E70470000000006480068D0
:1001D000006880F3088862B661B6BFF34F8FBFF343
:1001E0006F8F00DF00BF00BF08ED00E0EFF3098074
:1001F000BFF36F8F0D4B1A6820E9F00F106008B540
:100200004FF0BF0080F3118802F02EF84FF000008D
:1002100080F31188BDE8084019680868B0E8F00F5D
:1002200080F30988BFF36F8F704700BF5000002034
:10023000EFF311804FF0BF0181F31188704780F315
:1002400011887047EFF30580704700000948804728
:1002500009480047FEE7FEE7FEE7FEE7FEE7FEE7A8
:10026000FEE7FEE7FEE7FEE704480549054A064BC0
:100270007047000029170008ED0000082046002004
:10028000204C002020480020204800200FB41CB53E
:10029000074B06AA7B4469460090059800F0EBFAEC
:1002A0000020694600F0FAFA1CBC5DF814FB00005F
:1002B000050600002DE9F0410E46044600202062AC
:1002C0002046E168884730B3252805D0D4E90121CC
:1002D0009047206A401CF2E7E168204600278847E3
:1002E000050018D0A5F14100192802D820354FF497
:1002F00000673246294620462760FFF731FF40B1AC
:10030000012804D0F61D26F007060836D8E7361D6A
:10031000D6E72846DAE7206ABDE8F0812DE9F0410A
:100320000646002410687529314616A510D0AFF393
:100330000080002802DA404213A507E031688A07EE
:1003400001D512A502E0490704D511A5012401E059
:10035000AFF3008000210A2206F1240709E0B0FB78
:10036000F2FCB0FBF2F302FB1C003030785418466C
:10037000491C0028F3D123462A463046BDE8F04107
:1003800000F00BB8000000002D0000002B00000062
:10039000200000007047704770472DE9F0470D4678
:1003A00099469246044600F124080168880604D55F
:1003B000E06921F01001216000E00120A84201DD88
:1003C000471B00E00027A1697A1902EB0900081A0F
:1003D000A0612078C00602D42046AFF3008000263A
:1003E00008E0D4E901211AF806009047206A401C71
:1003F000761C20624E45F4DB2078C0060AD52046E4
:10040000AFF3008006E0D4E9012130209047206A54
:10041000401C2062381EA7F10107F4DC07E0D4E994
:10042000012118F805009047206A401C2062281E10
:10043000A5F10105F3DC2046AFF30080207800062B
:1004400002D50220BDE8F0870120FBE770472DE9C7
:10045000FF4F0C461E464FF0FF378BB0D2E900012C
:10046000DDF860800A908A46C1F30A5505B93D4619
:10047000002108464FF00000BAF1000F00F44000E0
:1004800005DA00EB80004FF4400101EA50004FEA2A
:100490009059B9F1010F00DDB9460A9850EA4A00B7
:1004A0000ED044F61050A5F2FF3545432F14B8F195
:1004B000000F1ED07542291E1EDDC9F100021CE08E
:1004C000B8F1010F4FF0000001D0302103E0F243FA
:1004D00005E02154401CB042FBDB304600220021E5
:1004E00021540B99C1F80880C1E900200FB0BDE884
:1004F000F08FBD1B6D1CDEE74A4600DA694206A894
:1005000000F05CFA06AB93E8070003AB83E8070052
:1005100050460A9900F03DFB8DE80700A0F5005019
:100520001F3800900398002D0ADD42F21F014A4651
:100530000844002303A90390684600F0A6FD09E0E3
:10054000A0F500504A461F38002303A903906846CF
:1005500000F0B0FD8DE807000004000C03D04FF060
:10056000FF30410800E01046B8F1000F03D0002230
:10057000009215461EE0751E05D400F099F9303240
:1005800062556D1EF9D5B3460122084302D0002200
:100590007F1C04E02078302801D100227F1E002A31
:1005A000099784D01DE0112D07DA00F081F930326F
:1005B00062556D1C50EA0102F5D1084302D0009843
:1005C000C8B10EE00021681E05E0235C625C635444
:1005D0002254401E491C8142F7DBAB46A81B401E3B
:1005E0000990002004F80B000B98099AC0F80880C5
:1005F000C0E9002B7AE711264FF0000857E72DE9F4
:10060000F04F88460446D21D22F0070191B0D1E98F
:100610000001CDE90A0101F015FA02460B98C00F5E
:1006200001D02D2007E02068810701D52B2002E0B2
:10063000202101EAC000032A099001D0072A05DB26
:1006400003464146204600F079F90BE12078800608
:1006500001D5E06900E00620B8F1650F814606D0BB
:10066000B8F1660F18D0B8F1670F70D131E00020F3
:10067000B9F1110F009001DB112301E009F1010331
:100680000AAA01A90CA8FFF7E2FEDDE90C7000261A
:1006900009F10105834647E001204B4600904FF0E9
:1006A00000470AAA01A90CA8FFF7D1FEDDE90DB0A9
:1006B0000C995D46002610B909F101000D18B9EB3F
:1006C000050003D4C0F1FF3609F10105A5EB0900CF
:1006D0002BE0B9F1010F01DA4FF001090020B9F167
:1006E000110F0090484601DD112300E003460AAADD
:1006F00001A90CA8FFF7ABFEDDE90C704D46002602
:100700008346207800070AD4AB4500DA5D4601A88D
:10071000012D04DD411911F8011C302907D04F4586
:1007200002DA17F1040F04DA012082460FE06D1E91
:10073000EEE7002F02DCED1B3E4403E0781CA842EC
:1007400000DD7D1CB81B00F1010A4FF00047207846
:10075000000703D4AA4501DB4FF0FF3A0021B7F1AF
:10076000004F0DF143088DF8431024D002202B23B5
:10077000002F01DA7F422D230A21021EA0F1010081
:1007800000DC5FB197FBF1FC97FBF1F201FB1C7CF5
:1007900017460CF1300C08F801CDEEE7A8F1010086
:1007A00003702188090501D5452100E06521A0F1EC
:1007B000010800F8011C09980FA9A1EB0807FF1D0B
:1007C00000B10120411901EBEA70A1693844081A0F
:1007D000401EA0612078C00602D42046AFF30080FE
:1007E000099828B1D4E901219047206A401C206271
:1007F0002078C00622D52046AFF300801EE0002EF0
:1008000004DBB34502DD01A8805D00E03020D4E9BF
:1008100001219047206A401C2062761CAAF1010049
:100820005FEA000A0AD100F03FF8C0680168405C46
:10083000D4E901219047206A401C2062281EA5F1BE
:100840000105DCDC07E0D4E9012118F8010B904731
:10085000206A401C2062381EA7F10107F3DC204605
:10086000AFF30080032011B041E6000001694A1C8B
:1008700002610878704700B58FB0CDE901310021E1
:10088000059105497944CDE9031011466846FFF703
:1008900011FD0FB000BD0000E5FFFFFF0A6802F880
:1008A000010B0A607047000000487047E0450020D7
:1008B00030B5B0F10A024FEA900E71F100034EEA32
:1008C000817EB0EB0E0061EB91014FEA101E4EEA03
:1008D000017E10EB0E0041EB11114FEA102E4EEA93
:1008E000016E10EB0E0041EB11214FEA104E4EEA63
:1008F000014E10EB0E0041EB1141401841F1000197
:100900004FEAD00040EA41704FEAD10110EB800578
:100910004FEA810444EA907444EB01046D1944EBFE
:100920000404521BA3414FF0000348BF0A3200D514
:1009300030BD401C41F1000130BD00002DE9F04107
:100940001F46044603260168072A01F4006004DB01
:1009500008B116A505E016A503E008B115A500E04D
:1009600015A521F010002060A069C01EA0610FB184
:10097000401EA0612046AFF300804FB1D4E90121B1
:1009800038469047206A401C2062C01C206206E066
:10099000206AFAE7D4E9012115F8010B9047761E89
:1009A000F8D22046AFF30080BDE8F0814E414E0002
:1009B0006E616E00494E4600696E66002DE9F04793
:1009C000814616468AB0354878440DC88DE80D003A
:1009D00032487844801C03AC0DC884E80D0041F611
:1009E0009B300844372190FBF1F290FBF1F5A5F123
:1009F000800501FB12041B3C02D56442012000E08B
:100A00000020DFF898A080460027FA44AAF1BE0A29
:100A10000EE0E0070AD03246684607EB47010123A3
:100A20000AEB810100F046FB8DE8070064107F1C93
:100A3000002CEED1194F7F44AE3F19E0E80715D0E6
:100A400007EB04100DF1180A90E80E008AE80E007A
:100A5000C068F04201D1981908903246012306A9D6
:100A600003A800F027FB03AB83E807006D10641CAC
:100A7000002DE3D14FF0010332466946B8F1000F73
:100A800003A802D000F001FB01E000F013FBC9E96C
:100A90000001C9F808200AB0BDE8F087F021000085
:100AA00000487047C04500207546FFF7F9FFAE4685
:100AB00005006946534620F00700854618B020B56A
:100AC000FFF7D2FBBDE820404FF000064FF00007D3
:100AD0004FF000084FF0000B21F00701AC46ACE8E6
:100AE000C009ACE8C009ACE8C009ACE8C0098D4653
:100AF000704710B50446AFF300802046BDE81040B3
:100B0000FFF74BBB4FF0013C50F8042B51F8043B6E
:100B10009A4221D1A2EB0C03934313EACC1317D1D1
:100B200050F8042B51F8043B9A4215D1A2EB0C0368
:100B3000934313EACC130BD150F8042B51F8043B28
:100B40009A4209D1A2EB0C03934313EACC13DBD0F6
:100B50004FF00000704700BFD01A01BAB1FA81F11E
:100B600001F0180122FA01F0CB40C1F12001DBB203
:100B7000C0B2C01A2CFA01F3D11A914311EAC31181
:100B8000E6D1704701491820ABBEFEE726000200FF
:100B900070475FEA400C08BF91F0000F4FEA8C23CA
:100BA0004FEAC12243EA51514FEA1C5018BF00F5E9
:100BB000F0404FEA300018BF41F000415FEA6C5C42
:100BC00000F02980BCF1FF3F08BF40F08040704733
:100BD000130C06BF12044FF0100C4FF0000C130E54
:100BE00004BF12020CF1080C130F04BF12010CF128
:100BF000040C930F04BF92000CF1020CD30F04BF3E
:100C000052000CF1010C11464FF00002A0F11F0040
:100C1000A0EB0C00704711F0004F08BF704731F097
:100C200000413FF4D5AF0B0C06BF09044FF0100C88
:100C30004FF0000C0B0E04BF09020CF1080C0B0F57
:100C400004BF09010CF1040C8B0F04BF89000CF1E7
:100C5000020CCB0F04BF49000CF1010CCCF12003B6
:100C6000A0EB0C0022FA03F302FA0CF241EA0301B2
:100C700000F10100704720F07F4C80EA030023F070
:100C80007F47ACEB070303F57C5300F0004003F112
:100C9000FF032DE980494FEA154B09B44FEA14438D
:100CA00025EA0B4E24EA03480FF2042606EB13272D
:100CB00049083E785FEA320203FB0667C7F5000782
:100CC00007FB06F64FEA54374FEAD64606F102060E
:100CD00007FB066CCCF1005C4FEA1C472CEA074C82
:100CE00007FB06F40CFB06F504EB15464FEA9616D7
:100CF00034BF00204FF000404FEAD13706FB07FC1D
:100D00004FEA1C4C0CFB0BF7D21B03FB0CF761EBFF
:100D100007010CFB0EF7B0EB074072EB17420CFB20
:100D200008F734BFA2EB0742B2EB074261EB174171
:100D30004FEA0C444FEA910706FB07FC4FEA1C4CB4
:100D40000CFB0BF7B0EBC74072EB573203FB0CF711
:100D500034BFA2EBC742B2EBC74261EB57310CFB89
:100D60000EF7B0EBC70072EB57720CFB08F734BFFD
:100D7000A2EBC702B2EBC70261EB5771039F4FEAC8
:100D8000816141EA921104EBCC044FEAD1374FEA7A
:100D9000826206FB07FC42EA90124FEA80604FEA4B
:100DA0001C4C0CFB0BF7D21B03FB0CF761EB070190
:100DB0000CFB0EF7B0EB074072EB17420CFB08F789
:100DC00034BFA2EB0742B2EB074261EB17414FEA97
:100DD0008C554FEA910704EB9C2406FB07FC4FEA75
:100DE0001C4C0CFB0BF7B0EBC74072EB573203FB0C
:100DF0000CF734BFA2EBC742B2EBC74261EB5731ED
:100E00000CFB0EF7B0EBC70072EB57720CFB08F748
:100E100034BFA2EBC702B2EBC70261EB577115EB0F
:100E20004C254FEA816141EA92114FEA82624FEA12
:100E3000D13742EA901206FB07FC44F100044FEA66
:100E400080604FEA1C4C0CFB0BF7D21B03FB0CF72A
:100E500061EB07010CFB0EF7B0EB074072EB17429A
:100E60000CFB08F734BFA2EB0742B2EB074261EB81
:100E7000174115EB1C154FEA813141EA92414FEAC7
:100E8000823242EA90424FEA80304FEA0C7644F1D7
:100E9000000448EA03434EEA0B484FF0000EB2EB61
:100EA000080C71EB030724BF624639464EEB0E0E69
:100EB0004FF0000B0018524149414BEB0B0BB2EBCA
:100EC000080C71EB03077BF1000B24BF6246394627
:100ED0004EEB0E0E4FF0000B0018524149414BEB08
:100EE0000B0BB2EB080C71EB03077BF1000B24BF7B
:100EF000624639464EEB0E0E51EA020718BF46F025
:100F0000010616EB0E7655F1000254F1000103D5EF
:100F1000BDE88901BDE80088BDE88901BDE8004859
:100F2000B619524141EB0101A3F1010370478080E2
:100F30007F7E7D7C7B7A7978777676757473727133
:100F400071706F6E6E6D6C6C6B6A6A6968686766EB
:100F500066656464636362616160605F5F5E5E5D7D
:100F60005D5C5C5B5B5A5A595958585757565655F1
:100F700055555454535352525251515050504F4F53
:100F80004F4E4E4D4D4D4C4C4C4B4B4B4A4A4A49A3
:100F900049494848484747474746464645454544E6
:100FA0004444444343434342424242414141002B73
:100FB0009C4630D477002BD01CB54FEA370703B4DA
:100FC0004FF010004FF01001BAF1000F06D0BCF145
:100FD000000FDCBF40F0080040F008014FF00000B7
:100FE0000FBCBDE810400BF1010BBBF1010F08BFB6
:100FF0005FEA170722BF12F1010211F101014FF060
:10100000004143F1000300F0004043EA0000704754
:10101000F9D35708D0E746EA064613F1400F4FEAE6
:1010200016461FDD13F1200FDFBF16430A460021CD
:1010300020335B42BED0C3F1200746EA064602FADF
:1010400007F74FEA164646EA0706C3F1200722FAD9
:1010500003F201FA07F721FA03F14FF0000342EA25
:101060000702A7E746EA020646EA06464FEA1646A0
:1010700046EA0106BCBF46EA0646360C4FF00003BE
:101080004FF000024FF0000194E72DE9804C9A46A2
:10109000934670B491E8380007C831EA400C48BF65
:1010A00034EA430C03D5FFF7E6FDFFF780FFF0BC01
:1010B000BDE8008C2DE9804C9A46934670B491E8C7
:1010C000380007C810F0804F08BF13F0804F03D1DD
:1010D00000F005F8FFF76BFFF0BCBDE8008C20F0D6
:1010E0007F4780EA030023F07F4C07EB0C03A3F556
:1010F0007C5300F00040A3F1FE0392F0000F00F0DB
:10110000B38095F0000F00F077802DE901494FEA98
:1011100011404FEA144621EA004800FB06FC24EA8D
:10112000064708FB06F607FB08F800FB07F718EB75
:1011300006484CEB164C4FEA124B18EB07484FEAA7
:1011400015464CEB174022EA0B4E0BFB06FC25EA3A
:1011500006470EFB06F607FB0EFE0BFB07F71EEB22
:10116000064E4CEB164C4FF000061EEB074E4CEBB8
:10117000174B18EB0B0840F1000018EB0E0B58EB67
:10118000000840F100008F1A4FF000013CBFC94336
:10119000661B14BFB5EB040C00213CBFC943F61B12
:1011A0004FEA17444EEA8E0E27EA04454FEA1C47E1
:1011B00004FB07622CEA074C05FB07F70CFB05F65E
:1011C00004FB0CFC16EB074642EB174216EB0C46F1
:1011D00042EB1C421BEB060658EB0202414146EA79
:1011E0009E0601D5BDE80189B619524141EB0101C6
:1011F000A3F10103BDE801894FEA14454FEA114705
:1012000024EA054621EA074C05FB07F406FB07F72D
:101210000CFB06F105FB0CFC11EB074144EB1744FA
:101220004FEA124711EB0C4144EB1C4422EA074CF5
:1012300005FB07F206FB07F70CFB06F605FB0CFCAB
:1012400016EB074642EB174216EB0C4642EB1C45E9
:101250006A1854F1000148BF7047B619524141EB7A
:101260000101A3F10103704795F0000F37D04FEA59
:1012700011424FEA144721EA024624EA074C02FBD6
:1012800007F106FB07F70CFB06F402FB0CFC14EB62
:10129000074441EB17414FEA154714EB0C4441EB6F
:1012A0001C4125EA074C02FB07F506FB07F70CFB80
:1012B00006F602FB0CFC16EB074645EB174516EB52
:1012C0000C4645EB1C42121951F1000148BF704712
:1012D000B619524141EB0101A3F1010370474FEAF6
:1012E00014454FEA114724EA054621EA074C05FB5D
:1012F00007F106FB07F70CFB06F24FF0000605FBB3
:101300000CFC12EB074241EB174112EB0C4251EB84
:101310001C4148BF7047921841EB0101A3F1010342
:10132000704700BFFEE770472DE9F04102460025F7
:101330000026002000230024002791F803C00CF0B1
:101340000F0591F803C00CF0100CBCF1000F03D096
:1013500091F802C04CEA050591F800C0BCF1000FFD
:1013600031D0146800202BE04FF0010C0CFA00F390
:10137000B1F800C00CEA03069E4220D183004FF072
:101380000F0C0CFA03F7BC4305FA03FC4CEA040407
:1013900091F803C0BCF1280F06D14FF0010C0CFAF4
:1013A00000FCC2F814C00AE091F803C0BCF1480F79
:1013B00005D14FF0010C0CFA00FCC2F810C0401C23
:1013C0000828D1D31460B1F800C0BCF1FF0F34DDA0
:1013D000546800202EE000F1080C4FF0010808FAD4
:1013E0000CF3B1F800C00CEA03069E4221D1830041
:1013F0004FF00F0C0CFA03F7BC4305FA03FC4CEA60
:10140000040491F803C0BCF1280F05D100F1080CC9
:1014100008FA0CF8C2F8148091F803C0BCF1480F28
:1014200007D100F1080C4FF0010808FA0CF8C2F8D7
:101430001080401C0828CED35460BDE8F08100BF66
:10144000FEE700BFFEE7704700F01F020121914058
:101450004209920002F1E022C2F800117047000038
:1014600070B5002100230F22C47804B3154C246802
:1014700004F4E064C4F5E064210AC1F10403CA4045
:10148000447804FA03F184781440214309010E4C96
:101490000678A155047804F01F050124AC400578B6
:1014A0006D11AD0005F1E025C5F8004109E00478B3
:1014B00004F01F050124AC40044D0678761145F870
:1014C000264070BD0CED00E000E400E080E100E0AB
:1014D00002490143024A1160704700000000FA050A
:1014E0000CED00E029B1064AD2690243044BDA61EF
:1014F00004E0034AD2698243014BDA61704700007D
:101500000010024029B1064A92690243044B9A61D5
:1015100004E0034A92698243014B9A6170470000DC
:101520000010024030B500210022002400232D4D80
:101530006D6805F00C0121B1042905D0082923D1DB
:1015400005E0294D056022E0274D05601FE0254D8F
:101550006D6805F47012234D6D6805F48034022522
:1015600005EB92421CB9214D554305600BE01D4D22
:101570006D6805F400351DB11C4D5543056002E052
:10158000194D5543056002E0174D056000BF00BFCF
:10159000144D6D6805F0F0010909154D6B5C056887
:1015A000DD4045600F4D6D6805F4E061090A104D9E
:1015B0006B5C4568DD4085600A4D6D6805F46051DF
:1015C000C90A0B4D6B5C4568DD40C560054D6D6813
:1015D00005F44041890B074D6B5CC568B5FBF3F51D
:1015E000056130BD0010024000127A0000093D0084
:1015F0003C0000204C00002010B500F001F810BDA8
:101600000CB50020019000903348006840F4803011
:101610003149086000BF3048006800F40030009095
:101620000198401C0190009818B90198B0F5A06F7E
:10163000F1D12948006800F4003010B10120009079
:1016400001E0002000900098012843D12348006861
:1016500040F01000214908600846006820F00300AF
:1016600008600846006840F0020008601A484068B8
:10167000194948600846406848600846406840F498
:10168000806048600846406820F47C104860084646
:10169000406840F4E81048600846006840F08070F8
:1016A000086000BF0C48006800F000700028F9D006
:1016B0000948406820F00300074948600846406830
:1016C00040F00200486000BF0348406800F00C0092
:1016D0000828F9D10CBD0000001002400020024093
:1016E000042808D14FF0E021096941F004014FF0CE
:1016F000E022116107E04FF0E021096921F00401C7
:101700004FF0E0221161704710B5FEF791FD00F037
:1017100073FE18B14FF08050024908600020FEF7B8
:101720008EFD10BD04ED00E010B51348006840F0D8
:1017300001001149086008464068104908400E49F8
:101740004860084600680E4908400B490860084692
:10175000006820F4802008600846406820F4FE00FD
:1017600048604FF41F008860FFF746FF4FF00060AD
:101770000449086010BD0000001002400000FFF89E
:10178000FFFFF6FE08ED00E010B5002011490880CB
:101790000121114800F035F8012816D10D480088C4
:1017A000401C0C4908800D480088401C0B490880EB
:1017B00008460088042808DD0948C06880F4005005
:1017C0000749C8600020054908800121024800F04F
:1017D00009F810BD1E000020000800402000002075
:1017E00000100140CA430282704721B1028842F0D2
:1017F0000102028004E002884FF6FE731A40028064
:10180000704730B50246002000230024158A05EAFF
:101810000103958905EA010413B10CB1012000E030
:10182000002030BD1AB183890B43838102E0838994
:101830008B43838170470000002202881D4B984231
:101840000ED01D4B98420BD0B0F1804F08D01B4BEF
:10185000984205D01A4B984202D01A4B984204D1B4
:101860004FF68F731A404B881A43174B984207D094
:10187000164B984204D04FF6FF431A40CB881A43C8
:1018800002808B8883850B8803850A4B98420BD096
:10189000094B984208D00E4B984205D00D4B984208
:1018A00002D00D4B984201D10B7A0386012383822B
:1018B00070470000002C014000340140000400404B
:1018C00000080040000C00400010004000140040E0
:1018D00000400140004401400048014010B5054867
:1018E000008805490880084601880248001F00F06A
:1018F000A3F810BD043801401800002021B18289EE
:1019000042F40052828104E082894DF6FF731A404E
:1019100082817047F0B50346002400260025002090
:1019200040F66A17B94200D100BF1846C1F342140D
:1019300001F01F06012707FA06F5012C01D10C3032
:1019400004E0022C01D1103000E014301AB1076815
:101950002F43076002E00768AF430760F0BD000057
:101960002DE9F04786B005460E460024A24600BF8A
:10197000A1460027B08900B100BF2F462C8A4CF643
:10198000FF700440F08804432C82AC894EF6F310BB
:101990000440B08831890843718908430443AC810D
:1019A000AC8A4FF6FF400440B0890443AC8201A8E2
:1019B000FFF7B8FD1F48874202D1DDF810A001E013
:1019C000DDF80CA0A88900F4004040B10AEBCA0081
:1019D00000EB0A1031684900B0FBF1F807E00AEBB0
:1019E000CA0000EB0A1031688900B0FBF1F86420EE
:1019F000B8FBF0F004012009642101FB1089A889DB
:101A000000F4004040B1322000EBC900B0FBF1F01F
:101A100000F00700044308E0322000EB09106421C5
:101A2000B0FBF1F000F00F0004432C8106B0BDE8DC
:101A3000F087000000380140C1F30802828070473F
:101A400000BFFEE7490050EAC12018BF04204A0D3C
:101A500018BF40F0010040F2FF72B2EB515F08BFC7
:101A600040F00200012808BF0520704710B56FF054
:101A70000400FFF735FE0A4800680A49B0FBF1F0A0
:101A8000094908700846007800EB4001C1EBC0101E
:101A90004FF6FF7101EAC0000449088010BD000044
:101AA0002400002000127A00380000203A000020B4
:101AB00008B501211020FFF725FD4FF40050ADF8C7
:101AC000000010208DF8030003208DF80200694605
:101AD0000148FFF729FC08BD0010014002E0642026
:101AE00000F066FBFBE700001FB5FFF7BFFFFFF745
:101AF000DFFF2049204840F2C272CDE900101FA14B
:101B00002248FEF7C3FB4FF4E13000F06DFA0020ED
:101B10000123CDE90030029003464FF480721CA1EE
:101B200003901E4800F0EAFB00200123CDE90030BD
:101B3000029003464FF4807219A103901A4800F0F6
:101B4000DDFB00200123CDE90030029003464FF475
:101B5000807216A10390164800F0D0FB42F20F717C
:101B600041F61F4000F0FAF900F04CFB002004B0F1
:101B700010BD0000991BC2E73D1C0F405472616309
:101B800065792025642025660D0A00009400002058
:101B90004C454420424C494E4B000000DD1A0008E1
:101BA0005553415254000000A920000853554D00E0
:101BB000611E000810B504460E48006844600E48D7
:101BC0000068844207D20B480168091D0B48006871
:101BD00000F090FA0CE007480168091D0848006809
:101BE00000F088FA07480068844201D20548046082
:101BF00010BD0000500000206400002058000020AC
:101C000054000020800000202DE9F04106460F46D8
:101C10001FB9B00000F0DCF800E03846054655B1C9
:101C20004C2000F0D5F804460CB1256304E02846AA
:101C300000F0A6FA00E000242046BDE8F081000094
:101C400070B523E000F008FB1348006808B90120D4
:101C500000E00020054600F05FFCBDB900F070FA1E
:101C60000D48C068C468201D00F020FA0B480068C9
:101C7000401E0A4908600A480068401E084908607A
:101C800000F06EFA204600F00DF800BF044800682E
:101C90000028D7D170BD000098010020600000200E
:101CA0005C00002010B50446206B00F069FA204665
:101CB00000F066FA10BD000000BFFFF7C1FF034847
:101CC00000680128F9D900F067FAF6E7F80000206B
:101CD0002DE9F04704460F4616469946DDF8208068
:101CE000002507E0795D04F134004155785D00B9C5
:101CF00002E06D1C102DF5D300BF002143200155DB
:101D0000052E00D30426E662201D00F0F0F904F150
:101D1000180000F0ECF92461C6F10500A0616462CE
:101D20000020606484F84800BDE8F08710B5002406
:101D300007E004EB84010F4A02EB810000F0CAF9CE
:101D4000641C052CF5D30C4800F0C4F90B4800F0D6
:101D5000C1F90B4800F0BEF90A4800F0BBF90A4887
:101D600000F0B8F9044809490860044808490860C7
:101D700010BD0000F80000205C0100207001002070
:101D80008401002098010020AC01002054000020B4
:101D9000580000200A490968096809B9012100E0D2
:101DA000002121B14FF0FF31064A116006E00449DD
:101DB0000968C968C868034A416811607047000033
:101DC0005400002080000020FEF732FA00BFFEE73A
:101DD00070B50446002504F0070020B104F00700A8
:101DE000C0F10800044400F037FA1248006820B936
:101DF000114820F007000F4908601048006820448F
:101E000044F2F831884210D20C48006820440B4953
:101E10000968884209D907480068084909684518CF
:101E20000648006820440549086000F075FB284614
:101E300070BD00008C000020C80100208800002038
:101E4000001F4FF080730360001F0160001F034BF1
:101E5000036014380260203870470000C91D000874
:101E600056E02C48006800F0F3FD06462A4A2B4B4A
:101E700000F008FC044600F0D3FB2649086028481F
:101E8000006800F0E5FD0646264A274B00F0FAFB05
:101E9000044600F0C5FB224908602448006800F0B1
:101EA000D7FD0646224A234B00F0ECFB044600F027
:101EB000B7FB1E4908602048006800F0C9FD0646CF
:101EC0001E4A1F4B00F0DEFB044600F0A9FB1A4936
:101ED00008601C48006800F0BBFD06461A4A1B4B10
:101EE00000F0D0FB044600F09BFB16490860184840
:101EF000006800F0ADFD0646164A174B00F0C2FB25
:101F0000044600F08DFB12490860642000F050F98F
:101F1000A7E70000000000202F4498ECE9342C3F94
:101F200004000020F168E388B5F8E43E08000020D2
:101F30002D431CEBE2362A3F0C000020EAD0E97961
:101F40003716543F10000020F30181CEA4CD094084
:101F50001400002027E43911B30F4A407FB504462E
:101F60000D4601210420FFF7BDFAADF80440ADF89D
:101F700008500020ADF80A008DF80C00ADF80600FE
:101F800001A91648FFF758FC4FF4407101F0070211
:101F9000134B18684FF6FF031840124B034343EAF4
:101FA00002200F4B186000BF1E208DF80000062095
:101FB0008DF8010000208DF8020001208DF803004B
:101FC000012211460548FFF72DFC1E20FFF73CFAC1
:101FD00001210248FFF709FC7FBD00000008004016
:101FE0000CED00E00000FA0510B586B004460121B2
:101FF0000420FFF787FA01218803FFF783FA4FF4E3
:102000000070ADF8040018208DF8070003208DF84B
:10201000060001A92248FFF787F94FF48060ADF868
:10202000040004208DF8070003208DF8060001A9A4
:102030001B48FFF779F902940020ADF814000C203A
:10204000ADF812000020ADF81000ADF80E00ADF8AC
:102050000C0002A91348FFF783FC4FF44070FFF710
:1020600037FA25208DF8000005208DF801000020AA
:102070008DF8020001208DF803006846FFF7F0F9A3
:10208000012240F225510748FFF744FC2520FFF7C5
:10209000DBF901210348FFF731FC06B010BD000059
:1020A000000801400038014000BFFEE701460A6910
:1020B000D1E901309860D1E9010358605068884245
:1020C00001D188685060002008611068401E1060CF
:1020D0001068704700F1080141604FF0FF318160E6
:1020E00000F10801C1600161002101607047002119
:1020F0000161704710B502460B685C1C0CB9106991
:1021000007E002F1080000E04068446824689C424F
:10211000FAD944684C604C68A160886041600A61EB
:102120001468641C146010BD42684A6093688B6038
:10213000936859609160086103685B1C0360704795
:1021400010B5FEF775F805480068401C03490860A3
:10215000BFF34F8FBFF36F8F10BD000090000020C2
:1021600010B506480068401E04490860084600682B
:1021700010B90020FEF763F810BD000090000020A9
:102180007047000003484FF0E021486107200861D4
:10219000704700003F1901004FF08050034908606C
:1021A000BFF34F8FBFF36F8F7047000004ED00E067
:1021B00070B504460026DCB100F04EF80E48006809
:1021C00005190E480068001DFFF770FF50B90B4855
:1021D000006890F82C100120884009490968814363
:1021E000074801602846FFF7E5FC00F095F9064630
:1021F0000EB9FFF7D1FF70BD640000205000002031
:10220000680000201FB50020009001900290034656
:1022100080220BA103900C4800F070F80446012CBA
:102220000CD1FEF705F8A01E0849086001200849F6
:10223000086000200749086000F046F81FBD000054
:1022400049444C4500000000B91C000880000020F3
:102250006C0000206400002002480068401C014916
:1022600008607047840000201248006818B10120FF
:10227000114908601DE000200F4908600F48006800
:10228000B0FA80F0C0F11F0101EB81020C4B03EBAF
:10229000820042685268426000F10802436893423B
:1022A00002D14268526842604268D268054B1A60A7
:1022B00000BF7047840000207400002068000020E8
:1022C000F80000205000002010B50A48006840F4D3
:1022D0007F00084908600846006840F07F400860B9
:1022E000FFF750FF002004490860FDF76FFF002052
:1022F00010BD000020ED00E0900000202DE9FF4F10
:1023000081B0804615469946DDE90E7A2846109937
:10231000FFF77AFC0446002C4FD0681E216B01EBBE
:10232000800B2BF0070B00953A462046119B029933
:10233000FFF7CEFC4A4641465846FFF781FD206034
:10234000BAF1000F01D0CAF80040FFF7F9FE2448A7
:102350000068401C224908602248006840B92148B2
:1023600004600846006801280CD1FFF7DFFC09E093
:102370001D48006830B91B480068C06AB84201D8DF
:102380001848046019480068401C1849086094F80F
:102390002C10012088401649096808431449086038
:1023A000E16A01EB8101134A02EB8100211DFFF775
:1023B000BBFE0126FFF7D4FE01E04FF0FF36012EF1
:1023C00009D10948006830B106480068C06AB842BF
:1023D00001D2FFF7E1FE304605B0BDE8F08F000006
:1023E00060000020500000206C0000207C000020D5
:1023F00068000020F80000202DE9F04100273B484C
:102400000068002865D13A480068401C38490860D7
:10241000084606688EB93748D0F80080364800680C
:10242000344908603448C0F8008034480068401CD3
:1024300032490860FFF7AEFC00BF314800688642B1
:102440003BD300BF2B480068006808B9012000E0BA
:10245000002020B14FF0FF30294908602CE02548CA
:102460000068C068C4686568AE4202D2244805604E
:1024700022E0201DFFF71AFEA06A18B104F118002F
:10248000FFF714FE94F82C10012088401D490968BC
:1024900008431C490860E16A01EB81011A4A02EB1A
:1024A0008100211DFFF740FE1849E06A0968C96AEA
:1024B0008842C7D30127C5E700BF14480068C06A37
:1024C00000EB8000104951F82000012806D90127AF
:1024D00004E00F480068401C0D4908600D48006882
:1024E00000B101273846BDE8F081000084000020DB
:1024F00064000020540000205800002078000020D4
:102500008000002068000020F8000020500000201B
:10251000700000207400002070B50025FFF710FE49
:102520002C480068401E2B490860084600680028B7
:102530004BD129480068002847D024E02748C068CC
:10254000C46804F11800FFF7B1FD201DFFF7AEFDD0
:1025500094F82C100120884021490968084320493B
:102560000860E16A01EB81011E4A02EB8100211D36
:10257000FFF7DAFD1C49E06A0968C96A884202D39C
:1025800001201A4908601548006808B9012000E0D8
:1025900000200028D2D01648006878B10AE0FFF782
:1025A0002BFF10B101201149086011480068401E3E
:1025B0000F4908600E4800680028F0D10B480068F9
:1025C000012802D10125FFF7E7FDFFF7C9FD2846E5
:1025D00070BD000084000020600000208401002005
:1025E00068000020F8000020500000207400002047
:1025F0007000002010B500290AD00878002807D004
:1026000005487844FEF77EFA002801D0002010BD6E
:102610000248784410BD0000F2050000EA05000001
:1026200021F00042A2F16052B2F5801F01F0004398
:1026300028BFD2F17F6C0BD95FEA001C43EAC202CB
:1026400042EB507018BF704728BF20F00100704760
:10265000B2F5801FBCBF184670474FEA410C1CF50D
:10266000001F02D2084600F064BA70B500F0B2F85C
:1026700000000089FFF7F6BF4FF00040A0F5800092
:102680007047000010B591EA030F48BF83F0004384
:1026900000F1FC80841A71EB030C05D2121943EB94
:1026A0000C03001B61EB0C01DFF824E14FEA11542D
:1026B000A4EB135C1EEA430F18BF9EEA445F73D07D
:1026C00023EA0E03DCF1200E21EA045143F48013C7
:1026D00032D322FA0CFE10EB0E0023FA0CFE41EB73
:1026E0000E01CCF1200E03FA0EFE10EB0E0051F19C
:1026F0000001B1F5801FCCF1200E32D201EB045164
:1027000012FA0EF2BDE8104058BF7047401C38BFA7
:102710005FEA420218BF7047002814BF20F0010092
:1027200041F100014FEA410313F5001F38BF704724
:10273000A1F1C04100F09CB8012A43EB0302ACF1C7
:10274000200CDCF11F0E32BF4FF0000E23FA0CF309
:1027500010EB030041EB0451B4EB115FD0D0A1EBBF
:10276000045101F5801149085FEA300001EB045182
:102770000ED350F1000038BF12FA0EFE08D1BDE8AA
:102780001040C9E7401C38BF5FEA4202CAD1C3E724
:10279000BDE810404FEA410313F5001F38BF7047F2
:1027A000A1F1C04100F064B89EEA445F08D011EA8C
:1027B0005E0FBDE8104004BF01F0004100207047EB
:1027C000BDE8104070B500F005F800BF64FBBE3EE8
:1027D0000000E0FF0EF1020E2EF0030E5EF8046B17
:1027E000364205D4012A43EB030515F5001F12D824
:1027F000012841EB010C1CF5001F0CD80ED14FEA4B
:10280000D17C15F5001F0CEB4C0C0CF1020C08BF31
:102810004CEBD37C04E04FF0080C01E04FEAD37C92
:102820000CEB4C0526FA05F606F00706B6F1040C8B
:1028300006D20EEB860CBDE870404CF0010C6047F0
:10284000DFE80CF0090B02024FF000414FF00000EE
:10285000A1F5002170BD19461046012851EB010475
:1028600018BFD4F5001484BF002001F0004170BDF2
:102870000808A0F500114FEA3101704710B591EA40
:10288000030F48BF83F000433FF504AF841A71EB98
:10289000030C07D212198CF0004C43EB0C03001B05
:1028A00061EB0C01DFF8A4E14FEA1154A4EB135CD7
:1028B0001EEA430F18BF9EEA445F00F0B08023EA8F
:1028C0006E03524221EA0451C3EB6E0338BF5B1E14
:1028D000DCF1200E25D322FA0CFE10EB0E0043FA99
:1028E0000CFE41EB0E01CCF1200E03FA0EFE10EBB4
:1028F0000E0051F10001CCF1200E29D412FA0EF293
:1029000001EB0451BDE8104058BF7047401C1CBF8C
:10291000B2F1004F704700280CBF491C20F00100A5
:10292000704712EB020E43EB030218BF4FF0010E8B
:102930004EEA4202ACF1200CDCF11E0E54D943FAEF
:102940000CFE10EB0E0051F1FF31CCF11E0ED5D56F
:102950000EF1010E12FA0EFE404141EB010101EBB6
:10296000445C5FEA5C5C10D910EBDE7001EB045153
:1029700038BFBEF1004FBDE8104018BF70470028B7
:102980000CBF491C20F00100704730D24FEAD42C14
:1029900011F5001124F400641BD0B1FA81F20B3A56
:1029A000A41AA41ED2F12003914030FA03F3194374
:1029B000904001EBCC71002C01EB0451BDE81040BC
:1029C000A8BF704701F1C0414FF0000001F0004185
:1029D0007047B0FA80F310FA03F100D110BDE41A89
:1029E000173C4805C90AE4E701EB045110BD491042
:1029F00001EB0451BDE810404FEA300002E04FF017
:102A0000000170474A0008BF0042F8D0B2F5001F2D
:102A100028BF704701F000414FF0000070479EEA68
:102A2000445F07D011EA5E0FBDE8104004BF0021EB
:102A300000207047BDE8104070B5FFF7CBFE00BF27
:102A400040DFF63E83F00041104670470000E0FF93
:102A500043004FEAD30C4FEA3C0C43401FBF4007F2
:102A60000CF1605113F0FE4F70471CF0006F03D162
:102A700000200CF0004170470CF0004343EA507016
:102A800010B540EACC0000F00EF800BF0000009244
:102A90004FEA0001FFF7ECBE4FF000414FF000009D
:102AA000A1F5002170470EF1020E2EF0030E5EF824
:102AB000044B244204D44FEA4102B2F17F4F11D8B3
:102AC0004FEA4003B3F17F4F0CD80ED14FEAD07CD0
:102AD000B2F17F4F0CEB4C0C0CF1020C08BF4CEB2D
:102AE000D17C04E04FF0080C01E04FEAD17C0CEB04
:102AF0004C0324FA03F404F00704B4F1040C06D2E6
:102B00000EEB840CBDE810404CF0010C6047DFE890
:102B10000CF0070802024FF00040A0F5800010BD45
:102B20000846420018BFD2F1807288BF00F0004012
:102B300010BDFF2141EAD050C0057047FDF75FBDD1
:102B400002400000000000A000000000054000005E
:102B5000000000C8000000000C4000000000409C85
:102B600000000000194000000020BCBE0000000072
:102B700034400000BFC91B8E00000004B5400000B7
:102B8000504BCFD06607E2CF010000006C4100003F
:102B90003E8251AADFEEA73401000000D9420000B6
:102BA000DCB5A0E23A301F97FFFFFFFFB4450000FD
:102BB000FD25A0C8E9A3C14FFFFFFFFFFF3F0000B5
:102BC0000000008000000000FF3F000000000080C7
:102BD00000000000102C00080000002094000000FD
:102BE00028010008A42C0008940000208C4B000051
:102BF000440100081C00000043000000F8FFFFFF34
:102C00000C0000000E0000000F0000002E0000006D
:102C1000EEA41440ED361143B7D51440E44E0940FC
:102C2000A2A4B2427C722645000000000000000011
:102C30000000000000A24A040000000000000000A4
:102C4000010203040607080900000000000000005C
:102C5000010203040102030406070809020406082E
:102C60000000000000000000000000000000000064
:102C70000000000000000000000000000000000054
:102C80000000000000000000000000000000000044
:102C90000000000000000000000000000000000034
:042CA000AAAAAAAA88
:040000050800024DA0
:00000001FF
